{
	"contracts/calculadora.sol": {
		"Calculator": {
			"abi": [
				{
					"inputs": [
						{
							"internalType": "uint256",
							"name": "a",
							"type": "uint256"
						},
						{
							"internalType": "uint256",
							"name": "b",
							"type": "uint256"
						}
					],
					"name": "add",
					"outputs": [],
					"stateMutability": "nonpayable",
					"type": "function"
				},
				{
					"inputs": [
						{
							"internalType": "uint256",
							"name": "a",
							"type": "uint256"
						},
						{
							"internalType": "uint256",
							"name": "b",
							"type": "uint256"
						}
					],
					"name": "divide",
					"outputs": [],
					"stateMutability": "nonpayable",
					"type": "function"
				},
				{
					"inputs": [
						{
							"internalType": "uint256",
							"name": "a",
							"type": "uint256"
						},
						{
							"internalType": "uint256",
							"name": "b",
							"type": "uint256"
						}
					],
					"name": "mul",
					"outputs": [],
					"stateMutability": "nonpayable",
					"type": "function"
				},
				{
					"inputs": [],
					"name": "result",
					"outputs": [
						{
							"internalType": "uint256",
							"name": "",
							"type": "uint256"
						}
					],
					"stateMutability": "view",
					"type": "function"
				},
				{
					"inputs": [
						{
							"internalType": "uint256",
							"name": "a",
							"type": "uint256"
						},
						{
							"internalType": "uint256",
							"name": "b",
							"type": "uint256"
						}
					],
					"name": "subtract",
					"outputs": [],
					"stateMutability": "nonpayable",
					"type": "function"
				}
			],
			"devdoc": {
				"kind": "dev",
				"methods": {},
				"version": 1
			},
			"evm": {
				"assembly": "    /* \"contracts/calculadora.sol\":64:507  contract Calculator {... */\n  mstore(0x40, 0x80)\n  callvalue\n  dup1\n  iszero\n  tag_1\n  jumpi\n  0x00\n  dup1\n  revert\ntag_1:\n  pop\n  dataSize(sub_0)\n  dup1\n  dataOffset(sub_0)\n  0x00\n  codecopy\n  0x00\n  return\nstop\n\nsub_0: assembly {\n        /* \"contracts/calculadora.sol\":64:507  contract Calculator {... */\n      mstore(0x40, 0x80)\n      callvalue\n      dup1\n      iszero\n      tag_1\n      jumpi\n      0x00\n      dup1\n      revert\n    tag_1:\n      pop\n      jumpi(tag_2, lt(calldatasize, 0x04))\n      shr(0xe0, calldataload(0x00))\n      dup1\n      0x3ef5e445\n      eq\n      tag_3\n      jumpi\n      dup1\n      0x65372147\n      eq\n      tag_4\n      jumpi\n      dup1\n      0x771602f7\n      eq\n      tag_5\n      jumpi\n      dup1\n      0xc8a4ac9c\n      eq\n      tag_6\n      jumpi\n      dup1\n      0xf88e9fbf\n      eq\n      tag_7\n      jumpi\n    tag_2:\n      0x00\n      dup1\n      revert\n        /* \"contracts/calculadora.sol\":187:257  function subtract(uint256 a, uint256 b) public {... */\n    tag_3:\n      tag_8\n      0x04\n      dup1\n      calldatasize\n      sub\n      dup2\n      add\n      swap1\n      tag_9\n      swap2\n      swap1\n      tag_10\n      jump\t// in\n    tag_9:\n      tag_11\n      jump\t// in\n    tag_8:\n      stop\n        /* \"contracts/calculadora.sol\":88:109  uint256 public result */\n    tag_4:\n      tag_12\n      tag_13\n      jump\t// in\n    tag_12:\n      mload(0x40)\n      tag_14\n      swap2\n      swap1\n      tag_15\n      jump\t// in\n    tag_14:\n      mload(0x40)\n      dup1\n      swap2\n      sub\n      swap1\n      return\n        /* \"contracts/calculadora.sol\":116:181  function add(uint256 a, uint256 b) public {... */\n    tag_5:\n      tag_16\n      0x04\n      dup1\n      calldatasize\n      sub\n      dup2\n      add\n      swap1\n      tag_17\n      swap2\n      swap1\n      tag_10\n      jump\t// in\n    tag_17:\n      tag_18\n      jump\t// in\n    tag_16:\n      stop\n        /* \"contracts/calculadora.sol\":263:326  function mul(uint256 a, uint256 b) public {... */\n    tag_6:\n      tag_19\n      0x04\n      dup1\n      calldatasize\n      sub\n      dup2\n      add\n      swap1\n      tag_20\n      swap2\n      swap1\n      tag_10\n      jump\t// in\n    tag_20:\n      tag_21\n      jump\t// in\n    tag_19:\n      stop\n        /* \"contracts/calculadora.sol\":425:504  function divide(uint256 a, uint256 b) public nonZero(b) {... */\n    tag_7:\n      tag_22\n      0x04\n      dup1\n      calldatasize\n      sub\n      dup2\n      add\n      swap1\n      tag_23\n      swap2\n      swap1\n      tag_10\n      jump\t// in\n    tag_23:\n      tag_24\n      jump\t// in\n    tag_22:\n      stop\n        /* \"contracts/calculadora.sol\":187:257  function subtract(uint256 a, uint256 b) public {... */\n    tag_11:\n        /* \"contracts/calculadora.sol\":251:252  b */\n      dup1\n        /* \"contracts/calculadora.sol\":247:248  a */\n      dup3\n        /* \"contracts/calculadora.sol\":247:252  a - b */\n      tag_26\n      swap2\n      swap1\n      tag_27\n      jump\t// in\n    tag_26:\n        /* \"contracts/calculadora.sol\":238:244  result */\n      0x00\n        /* \"contracts/calculadora.sol\":238:252  result = a - b */\n      dup2\n      swap1\n      sstore\n      pop\n        /* \"contracts/calculadora.sol\":187:257  function subtract(uint256 a, uint256 b) public {... */\n      pop\n      pop\n      jump\t// out\n        /* \"contracts/calculadora.sol\":88:109  uint256 public result */\n    tag_13:\n      sload(0x00)\n      dup2\n      jump\t// out\n        /* \"contracts/calculadora.sol\":116:181  function add(uint256 a, uint256 b) public {... */\n    tag_18:\n        /* \"contracts/calculadora.sol\":175:176  b */\n      dup1\n        /* \"contracts/calculadora.sol\":171:172  a */\n      dup3\n        /* \"contracts/calculadora.sol\":171:176  a + b */\n      tag_29\n      swap2\n      swap1\n      tag_30\n      jump\t// in\n    tag_29:\n        /* \"contracts/calculadora.sol\":162:168  result */\n      0x00\n        /* \"contracts/calculadora.sol\":162:176  result = a + b */\n      dup2\n      swap1\n      sstore\n      pop\n        /* \"contracts/calculadora.sol\":116:181  function add(uint256 a, uint256 b) public {... */\n      pop\n      pop\n      jump\t// out\n        /* \"contracts/calculadora.sol\":263:326  function mul(uint256 a, uint256 b) public {... */\n    tag_21:\n        /* \"contracts/calculadora.sol\":321:322  b */\n      dup1\n        /* \"contracts/calculadora.sol\":317:318  a */\n      dup3\n        /* \"contracts/calculadora.sol\":317:322  a * b */\n      tag_32\n      swap2\n      swap1\n      tag_33\n      jump\t// in\n    tag_32:\n        /* \"contracts/calculadora.sol\":308:314  result */\n      0x00\n        /* \"contracts/calculadora.sol\":308:322  result = a * b */\n      dup2\n      swap1\n      sstore\n      pop\n        /* \"contracts/calculadora.sol\":263:326  function mul(uint256 a, uint256 b) public {... */\n      pop\n      pop\n      jump\t// out\n        /* \"contracts/calculadora.sol\":425:504  function divide(uint256 a, uint256 b) public nonZero(b) {... */\n    tag_24:\n        /* \"contracts/calculadora.sol\":478:479  b */\n      dup1\n        /* \"contracts/calculadora.sol\":383:384  0 */\n      0x00\n        /* \"contracts/calculadora.sol\":373:379  number */\n      dup2\n        /* \"contracts/calculadora.sol\":373:384  number != 0 */\n      sub\n        /* \"contracts/calculadora.sol\":365:410  require(number != 0, \"Number cannot be zero\") */\n      tag_35\n      jumpi\n      mload(0x40)\n      0x08c379a000000000000000000000000000000000000000000000000000000000\n      dup2\n      mstore\n      0x04\n      add\n      tag_36\n      swap1\n      tag_37\n      jump\t// in\n    tag_36:\n      mload(0x40)\n      dup1\n      swap2\n      sub\n      swap1\n      revert\n    tag_35:\n        /* \"contracts/calculadora.sol\":498:499  b */\n      dup2\n        /* \"contracts/calculadora.sol\":494:495  a */\n      dup4\n        /* \"contracts/calculadora.sol\":494:499  a / b */\n      tag_39\n      swap2\n      swap1\n      tag_40\n      jump\t// in\n    tag_39:\n        /* \"contracts/calculadora.sol\":485:491  result */\n      0x00\n        /* \"contracts/calculadora.sol\":485:499  result = a / b */\n      dup2\n      swap1\n      sstore\n      pop\n        /* \"contracts/calculadora.sol\":425:504  function divide(uint256 a, uint256 b) public nonZero(b) {... */\n      pop\n      pop\n      pop\n      jump\t// out\n        /* \"#utility.yul\":88:205   */\n    tag_42:\n        /* \"#utility.yul\":197:198   */\n      0x00\n        /* \"#utility.yul\":194:195   */\n      dup1\n        /* \"#utility.yul\":187:199   */\n      revert\n        /* \"#utility.yul\":334:411   */\n    tag_44:\n        /* \"#utility.yul\":371:378   */\n      0x00\n        /* \"#utility.yul\":400:405   */\n      dup2\n        /* \"#utility.yul\":389:405   */\n      swap1\n      pop\n        /* \"#utility.yul\":334:411   */\n      swap2\n      swap1\n      pop\n      jump\t// out\n        /* \"#utility.yul\":417:539   */\n    tag_45:\n        /* \"#utility.yul\":490:514   */\n      tag_59\n        /* \"#utility.yul\":508:513   */\n      dup2\n        /* \"#utility.yul\":490:514   */\n      tag_44\n      jump\t// in\n    tag_59:\n        /* \"#utility.yul\":483:488   */\n      dup2\n        /* \"#utility.yul\":480:515   */\n      eq\n        /* \"#utility.yul\":470:533   */\n      tag_60\n      jumpi\n        /* \"#utility.yul\":529:530   */\n      0x00\n        /* \"#utility.yul\":526:527   */\n      dup1\n        /* \"#utility.yul\":519:531   */\n      revert\n        /* \"#utility.yul\":470:533   */\n    tag_60:\n        /* \"#utility.yul\":417:539   */\n      pop\n      jump\t// out\n        /* \"#utility.yul\":545:684   */\n    tag_46:\n        /* \"#utility.yul\":591:596   */\n      0x00\n        /* \"#utility.yul\":629:635   */\n      dup2\n        /* \"#utility.yul\":616:636   */\n      calldataload\n        /* \"#utility.yul\":607:636   */\n      swap1\n      pop\n        /* \"#utility.yul\":645:678   */\n      tag_62\n        /* \"#utility.yul\":672:677   */\n      dup2\n        /* \"#utility.yul\":645:678   */\n      tag_45\n      jump\t// in\n    tag_62:\n        /* \"#utility.yul\":545:684   */\n      swap3\n      swap2\n      pop\n      pop\n      jump\t// out\n        /* \"#utility.yul\":690:1164   */\n    tag_10:\n        /* \"#utility.yul\":758:764   */\n      0x00\n        /* \"#utility.yul\":766:772   */\n      dup1\n        /* \"#utility.yul\":815:817   */\n      0x40\n        /* \"#utility.yul\":803:812   */\n      dup4\n        /* \"#utility.yul\":794:801   */\n      dup6\n        /* \"#utility.yul\":790:813   */\n      sub\n        /* \"#utility.yul\":786:818   */\n      slt\n        /* \"#utility.yul\":783:902   */\n      iszero\n      tag_64\n      jumpi\n        /* \"#utility.yul\":821:900   */\n      tag_65\n      tag_42\n      jump\t// in\n    tag_65:\n        /* \"#utility.yul\":783:902   */\n    tag_64:\n        /* \"#utility.yul\":941:942   */\n      0x00\n        /* \"#utility.yul\":966:1019   */\n      tag_66\n        /* \"#utility.yul\":1011:1018   */\n      dup6\n        /* \"#utility.yul\":1002:1008   */\n      dup3\n        /* \"#utility.yul\":991:1000   */\n      dup7\n        /* \"#utility.yul\":987:1009   */\n      add\n        /* \"#utility.yul\":966:1019   */\n      tag_46\n      jump\t// in\n    tag_66:\n        /* \"#utility.yul\":956:1019   */\n      swap3\n      pop\n        /* \"#utility.yul\":912:1029   */\n      pop\n        /* \"#utility.yul\":1068:1070   */\n      0x20\n        /* \"#utility.yul\":1094:1147   */\n      tag_67\n        /* \"#utility.yul\":1139:1146   */\n      dup6\n        /* \"#utility.yul\":1130:1136   */\n      dup3\n        /* \"#utility.yul\":1119:1128   */\n      dup7\n        /* \"#utility.yul\":1115:1137   */\n      add\n        /* \"#utility.yul\":1094:1147   */\n      tag_46\n      jump\t// in\n    tag_67:\n        /* \"#utility.yul\":1084:1147   */\n      swap2\n      pop\n        /* \"#utility.yul\":1039:1157   */\n      pop\n        /* \"#utility.yul\":690:1164   */\n      swap3\n      pop\n      swap3\n      swap1\n      pop\n      jump\t// out\n        /* \"#utility.yul\":1170:1288   */\n    tag_47:\n        /* \"#utility.yul\":1257:1281   */\n      tag_69\n        /* \"#utility.yul\":1275:1280   */\n      dup2\n        /* \"#utility.yul\":1257:1281   */\n      tag_44\n      jump\t// in\n    tag_69:\n        /* \"#utility.yul\":1252:1255   */\n      dup3\n        /* \"#utility.yul\":1245:1282   */\n      mstore\n        /* \"#utility.yul\":1170:1288   */\n      pop\n      pop\n      jump\t// out\n        /* \"#utility.yul\":1294:1516   */\n    tag_15:\n        /* \"#utility.yul\":1387:1391   */\n      0x00\n        /* \"#utility.yul\":1425:1427   */\n      0x20\n        /* \"#utility.yul\":1414:1423   */\n      dup3\n        /* \"#utility.yul\":1410:1428   */\n      add\n        /* \"#utility.yul\":1402:1428   */\n      swap1\n      pop\n        /* \"#utility.yul\":1438:1509   */\n      tag_71\n        /* \"#utility.yul\":1506:1507   */\n      0x00\n        /* \"#utility.yul\":1495:1504   */\n      dup4\n        /* \"#utility.yul\":1491:1508   */\n      add\n        /* \"#utility.yul\":1482:1488   */\n      dup5\n        /* \"#utility.yul\":1438:1509   */\n      tag_47\n      jump\t// in\n    tag_71:\n        /* \"#utility.yul\":1294:1516   */\n      swap3\n      swap2\n      pop\n      pop\n      jump\t// out\n        /* \"#utility.yul\":1522:1702   */\n    tag_48:\n        /* \"#utility.yul\":1570:1647   */\n      0x4e487b7100000000000000000000000000000000000000000000000000000000\n        /* \"#utility.yul\":1567:1568   */\n      0x00\n        /* \"#utility.yul\":1560:1648   */\n      mstore\n        /* \"#utility.yul\":1667:1671   */\n      0x11\n        /* \"#utility.yul\":1664:1665   */\n      0x04\n        /* \"#utility.yul\":1657:1672   */\n      mstore\n        /* \"#utility.yul\":1691:1695   */\n      0x24\n        /* \"#utility.yul\":1688:1689   */\n      0x00\n        /* \"#utility.yul\":1681:1696   */\n      revert\n        /* \"#utility.yul\":1708:1902   */\n    tag_27:\n        /* \"#utility.yul\":1748:1752   */\n      0x00\n        /* \"#utility.yul\":1768:1788   */\n      tag_74\n        /* \"#utility.yul\":1786:1787   */\n      dup3\n        /* \"#utility.yul\":1768:1788   */\n      tag_44\n      jump\t// in\n    tag_74:\n        /* \"#utility.yul\":1763:1788   */\n      swap2\n      pop\n        /* \"#utility.yul\":1802:1822   */\n      tag_75\n        /* \"#utility.yul\":1820:1821   */\n      dup4\n        /* \"#utility.yul\":1802:1822   */\n      tag_44\n      jump\t// in\n    tag_75:\n        /* \"#utility.yul\":1797:1822   */\n      swap3\n      pop\n        /* \"#utility.yul\":1846:1847   */\n      dup3\n        /* \"#utility.yul\":1843:1844   */\n      dup3\n        /* \"#utility.yul\":1839:1848   */\n      sub\n        /* \"#utility.yul\":1831:1848   */\n      swap1\n      pop\n        /* \"#utility.yul\":1870:1871   */\n      dup2\n        /* \"#utility.yul\":1864:1868   */\n      dup2\n        /* \"#utility.yul\":1861:1872   */\n      gt\n        /* \"#utility.yul\":1858:1895   */\n      iszero\n      tag_76\n      jumpi\n        /* \"#utility.yul\":1875:1893   */\n      tag_77\n      tag_48\n      jump\t// in\n    tag_77:\n        /* \"#utility.yul\":1858:1895   */\n    tag_76:\n        /* \"#utility.yul\":1708:1902   */\n      swap3\n      swap2\n      pop\n      pop\n      jump\t// out\n        /* \"#utility.yul\":1908:2099   */\n    tag_30:\n        /* \"#utility.yul\":1948:1951   */\n      0x00\n        /* \"#utility.yul\":1967:1987   */\n      tag_79\n        /* \"#utility.yul\":1985:1986   */\n      dup3\n        /* \"#utility.yul\":1967:1987   */\n      tag_44\n      jump\t// in\n    tag_79:\n        /* \"#utility.yul\":1962:1987   */\n      swap2\n      pop\n        /* \"#utility.yul\":2001:2021   */\n      tag_80\n        /* \"#utility.yul\":2019:2020   */\n      dup4\n        /* \"#utility.yul\":2001:2021   */\n      tag_44\n      jump\t// in\n    tag_80:\n        /* \"#utility.yul\":1996:2021   */\n      swap3\n      pop\n        /* \"#utility.yul\":2044:2045   */\n      dup3\n        /* \"#utility.yul\":2041:2042   */\n      dup3\n        /* \"#utility.yul\":2037:2046   */\n      add\n        /* \"#utility.yul\":2030:2046   */\n      swap1\n      pop\n        /* \"#utility.yul\":2065:2068   */\n      dup1\n        /* \"#utility.yul\":2062:2063   */\n      dup3\n        /* \"#utility.yul\":2059:2069   */\n      gt\n        /* \"#utility.yul\":2056:2092   */\n      iszero\n      tag_81\n      jumpi\n        /* \"#utility.yul\":2072:2090   */\n      tag_82\n      tag_48\n      jump\t// in\n    tag_82:\n        /* \"#utility.yul\":2056:2092   */\n    tag_81:\n        /* \"#utility.yul\":1908:2099   */\n      swap3\n      swap2\n      pop\n      pop\n      jump\t// out\n        /* \"#utility.yul\":2105:2515   */\n    tag_33:\n        /* \"#utility.yul\":2145:2152   */\n      0x00\n        /* \"#utility.yul\":2168:2188   */\n      tag_84\n        /* \"#utility.yul\":2186:2187   */\n      dup3\n        /* \"#utility.yul\":2168:2188   */\n      tag_44\n      jump\t// in\n    tag_84:\n        /* \"#utility.yul\":2163:2188   */\n      swap2\n      pop\n        /* \"#utility.yul\":2202:2222   */\n      tag_85\n        /* \"#utility.yul\":2220:2221   */\n      dup4\n        /* \"#utility.yul\":2202:2222   */\n      tag_44\n      jump\t// in\n    tag_85:\n        /* \"#utility.yul\":2197:2222   */\n      swap3\n      pop\n        /* \"#utility.yul\":2257:2258   */\n      dup3\n        /* \"#utility.yul\":2254:2255   */\n      dup3\n        /* \"#utility.yul\":2250:2259   */\n      mul\n        /* \"#utility.yul\":2279:2309   */\n      tag_86\n        /* \"#utility.yul\":2297:2308   */\n      dup2\n        /* \"#utility.yul\":2279:2309   */\n      tag_44\n      jump\t// in\n    tag_86:\n        /* \"#utility.yul\":2268:2309   */\n      swap2\n      pop\n        /* \"#utility.yul\":2458:2459   */\n      dup3\n        /* \"#utility.yul\":2449:2456   */\n      dup3\n        /* \"#utility.yul\":2445:2460   */\n      div\n        /* \"#utility.yul\":2442:2443   */\n      dup5\n        /* \"#utility.yul\":2439:2461   */\n      eq\n        /* \"#utility.yul\":2419:2420   */\n      dup4\n        /* \"#utility.yul\":2412:2421   */\n      iszero\n        /* \"#utility.yul\":2392:2475   */\n      or\n        /* \"#utility.yul\":2369:2508   */\n      tag_87\n      jumpi\n        /* \"#utility.yul\":2488:2506   */\n      tag_88\n      tag_48\n      jump\t// in\n    tag_88:\n        /* \"#utility.yul\":2369:2508   */\n    tag_87:\n        /* \"#utility.yul\":2153:2515   */\n      pop\n        /* \"#utility.yul\":2105:2515   */\n      swap3\n      swap2\n      pop\n      pop\n      jump\t// out\n        /* \"#utility.yul\":2521:2690   */\n    tag_49:\n        /* \"#utility.yul\":2605:2616   */\n      0x00\n        /* \"#utility.yul\":2639:2645   */\n      dup3\n        /* \"#utility.yul\":2634:2637   */\n      dup3\n        /* \"#utility.yul\":2627:2646   */\n      mstore\n        /* \"#utility.yul\":2679:2683   */\n      0x20\n        /* \"#utility.yul\":2674:2677   */\n      dup3\n        /* \"#utility.yul\":2670:2684   */\n      add\n        /* \"#utility.yul\":2655:2684   */\n      swap1\n      pop\n        /* \"#utility.yul\":2521:2690   */\n      swap3\n      swap2\n      pop\n      pop\n      jump\t// out\n        /* \"#utility.yul\":2696:2867   */\n    tag_50:\n        /* \"#utility.yul\":2836:2859   */\n      0x4e756d6265722063616e6e6f74206265207a65726f0000000000000000000000\n        /* \"#utility.yul\":2832:2833   */\n      0x00\n        /* \"#utility.yul\":2824:2830   */\n      dup3\n        /* \"#utility.yul\":2820:2834   */\n      add\n        /* \"#utility.yul\":2813:2860   */\n      mstore\n        /* \"#utility.yul\":2696:2867   */\n      pop\n      jump\t// out\n        /* \"#utility.yul\":2873:3239   */\n    tag_51:\n        /* \"#utility.yul\":3015:3018   */\n      0x00\n        /* \"#utility.yul\":3036:3103   */\n      tag_92\n        /* \"#utility.yul\":3100:3102   */\n      0x15\n        /* \"#utility.yul\":3095:3098   */\n      dup4\n        /* \"#utility.yul\":3036:3103   */\n      tag_49\n      jump\t// in\n    tag_92:\n        /* \"#utility.yul\":3029:3103   */\n      swap2\n      pop\n        /* \"#utility.yul\":3112:3205   */\n      tag_93\n        /* \"#utility.yul\":3201:3204   */\n      dup3\n        /* \"#utility.yul\":3112:3205   */\n      tag_50\n      jump\t// in\n    tag_93:\n        /* \"#utility.yul\":3230:3232   */\n      0x20\n        /* \"#utility.yul\":3225:3228   */\n      dup3\n        /* \"#utility.yul\":3221:3233   */\n      add\n        /* \"#utility.yul\":3214:3233   */\n      swap1\n      pop\n        /* \"#utility.yul\":2873:3239   */\n      swap2\n      swap1\n      pop\n      jump\t// out\n        /* \"#utility.yul\":3245:3664   */\n    tag_37:\n        /* \"#utility.yul\":3411:3415   */\n      0x00\n        /* \"#utility.yul\":3449:3451   */\n      0x20\n        /* \"#utility.yul\":3438:3447   */\n      dup3\n        /* \"#utility.yul\":3434:3452   */\n      add\n        /* \"#utility.yul\":3426:3452   */\n      swap1\n      pop\n        /* \"#utility.yul\":3498:3507   */\n      dup2\n        /* \"#utility.yul\":3492:3496   */\n      dup2\n        /* \"#utility.yul\":3488:3508   */\n      sub\n        /* \"#utility.yul\":3484:3485   */\n      0x00\n        /* \"#utility.yul\":3473:3482   */\n      dup4\n        /* \"#utility.yul\":3469:3486   */\n      add\n        /* \"#utility.yul\":3462:3509   */\n      mstore\n        /* \"#utility.yul\":3526:3657   */\n      tag_95\n        /* \"#utility.yul\":3652:3656   */\n      dup2\n        /* \"#utility.yul\":3526:3657   */\n      tag_51\n      jump\t// in\n    tag_95:\n        /* \"#utility.yul\":3518:3657   */\n      swap1\n      pop\n        /* \"#utility.yul\":3245:3664   */\n      swap2\n      swap1\n      pop\n      jump\t// out\n        /* \"#utility.yul\":3670:3850   */\n    tag_52:\n        /* \"#utility.yul\":3718:3795   */\n      0x4e487b7100000000000000000000000000000000000000000000000000000000\n        /* \"#utility.yul\":3715:3716   */\n      0x00\n        /* \"#utility.yul\":3708:3796   */\n      mstore\n        /* \"#utility.yul\":3815:3819   */\n      0x12\n        /* \"#utility.yul\":3812:3813   */\n      0x04\n        /* \"#utility.yul\":3805:3820   */\n      mstore\n        /* \"#utility.yul\":3839:3843   */\n      0x24\n        /* \"#utility.yul\":3836:3837   */\n      0x00\n        /* \"#utility.yul\":3829:3844   */\n      revert\n        /* \"#utility.yul\":3856:4041   */\n    tag_40:\n        /* \"#utility.yul\":3896:3897   */\n      0x00\n        /* \"#utility.yul\":3913:3933   */\n      tag_98\n        /* \"#utility.yul\":3931:3932   */\n      dup3\n        /* \"#utility.yul\":3913:3933   */\n      tag_44\n      jump\t// in\n    tag_98:\n        /* \"#utility.yul\":3908:3933   */\n      swap2\n      pop\n        /* \"#utility.yul\":3947:3967   */\n      tag_99\n        /* \"#utility.yul\":3965:3966   */\n      dup4\n        /* \"#utility.yul\":3947:3967   */\n      tag_44\n      jump\t// in\n    tag_99:\n        /* \"#utility.yul\":3942:3967   */\n      swap3\n      pop\n        /* \"#utility.yul\":3986:3987   */\n      dup3\n        /* \"#utility.yul\":3976:4011   */\n      tag_100\n      jumpi\n        /* \"#utility.yul\":3991:4009   */\n      tag_101\n      tag_52\n      jump\t// in\n    tag_101:\n        /* \"#utility.yul\":3976:4011   */\n    tag_100:\n        /* \"#utility.yul\":4033:4034   */\n      dup3\n        /* \"#utility.yul\":4030:4031   */\n      dup3\n        /* \"#utility.yul\":4026:4035   */\n      div\n        /* \"#utility.yul\":4021:4035   */\n      swap1\n      pop\n        /* \"#utility.yul\":3856:4041   */\n      swap3\n      swap2\n      pop\n      pop\n      jump\t// out\n\n    auxdata: 0xa264697066735822122054c67e41c27fc4ee305d5f21ff9d4dbb27eb20960f8e740457a6018c34c0812264736f6c634300081a0033\n}\n",
				"bytecode": {
					"linkReferences": {},
					"object": "6080604052348015600e575f80fd5b506104008061001c5f395ff3fe608060405234801561000f575f80fd5b5060043610610055575f3560e01c80633ef5e445146100595780636537214714610075578063771602f714610093578063c8a4ac9c146100af578063f88e9fbf146100cb575b5f80fd5b610073600480360381019061006e91906101bb565b6100e7565b005b61007d6100fc565b60405161008a9190610208565b60405180910390f35b6100ad60048036038101906100a891906101bb565b610101565b005b6100c960048036038101906100c491906101bb565b610116565b005b6100e560048036038101906100e091906101bb565b61012b565b005b80826100f3919061024e565b5f819055505050565b5f5481565b808261010d9190610281565b5f819055505050565b808261012291906102b4565b5f819055505050565b805f810361016e576040517f08c379a00000000000000000000000000000000000000000000000000000000081526004016101659061034f565b60405180910390fd5b818361017a919061039a565b5f81905550505050565b5f80fd5b5f819050919050565b61019a81610188565b81146101a4575f80fd5b50565b5f813590506101b581610191565b92915050565b5f80604083850312156101d1576101d0610184565b5b5f6101de858286016101a7565b92505060206101ef858286016101a7565b9150509250929050565b61020281610188565b82525050565b5f60208201905061021b5f8301846101f9565b92915050565b7f4e487b71000000000000000000000000000000000000000000000000000000005f52601160045260245ffd5b5f61025882610188565b915061026383610188565b925082820390508181111561027b5761027a610221565b5b92915050565b5f61028b82610188565b915061029683610188565b92508282019050808211156102ae576102ad610221565b5b92915050565b5f6102be82610188565b91506102c983610188565b92508282026102d781610188565b915082820484148315176102ee576102ed610221565b5b5092915050565b5f82825260208201905092915050565b7f4e756d6265722063616e6e6f74206265207a65726f00000000000000000000005f82015250565b5f6103396015836102f5565b915061034482610305565b602082019050919050565b5f6020820190508181035f8301526103668161032d565b9050919050565b7f4e487b71000000000000000000000000000000000000000000000000000000005f52601260045260245ffd5b5f6103a482610188565b91506103af83610188565b9250826103bf576103be61036d565b5b82820490509291505056fea264697066735822122054c67e41c27fc4ee305d5f21ff9d4dbb27eb20960f8e740457a6018c34c0812264736f6c634300081a0033",
					"opcodes": "PUSH1 0x80 PUSH1 0x40 MSTORE CALLVALUE DUP1 ISZERO PUSH1 0xE JUMPI PUSH0 DUP1 REVERT JUMPDEST POP PUSH2 0x400 DUP1 PUSH2 0x1C PUSH0 CODECOPY PUSH0 RETURN INVALID PUSH1 0x80 PUSH1 0x40 MSTORE CALLVALUE DUP1 ISZERO PUSH2 0xF JUMPI PUSH0 DUP1 REVERT JUMPDEST POP PUSH1 0x4 CALLDATASIZE LT PUSH2 0x55 JUMPI PUSH0 CALLDATALOAD PUSH1 0xE0 SHR DUP1 PUSH4 0x3EF5E445 EQ PUSH2 0x59 JUMPI DUP1 PUSH4 0x65372147 EQ PUSH2 0x75 JUMPI DUP1 PUSH4 0x771602F7 EQ PUSH2 0x93 JUMPI DUP1 PUSH4 0xC8A4AC9C EQ PUSH2 0xAF JUMPI DUP1 PUSH4 0xF88E9FBF EQ PUSH2 0xCB JUMPI JUMPDEST PUSH0 DUP1 REVERT JUMPDEST PUSH2 0x73 PUSH1 0x4 DUP1 CALLDATASIZE SUB DUP2 ADD SWAP1 PUSH2 0x6E SWAP2 SWAP1 PUSH2 0x1BB JUMP JUMPDEST PUSH2 0xE7 JUMP JUMPDEST STOP JUMPDEST PUSH2 0x7D PUSH2 0xFC JUMP JUMPDEST PUSH1 0x40 MLOAD PUSH2 0x8A SWAP2 SWAP1 PUSH2 0x208 JUMP JUMPDEST PUSH1 0x40 MLOAD DUP1 SWAP2 SUB SWAP1 RETURN JUMPDEST PUSH2 0xAD PUSH1 0x4 DUP1 CALLDATASIZE SUB DUP2 ADD SWAP1 PUSH2 0xA8 SWAP2 SWAP1 PUSH2 0x1BB JUMP JUMPDEST PUSH2 0x101 JUMP JUMPDEST STOP JUMPDEST PUSH2 0xC9 PUSH1 0x4 DUP1 CALLDATASIZE SUB DUP2 ADD SWAP1 PUSH2 0xC4 SWAP2 SWAP1 PUSH2 0x1BB JUMP JUMPDEST PUSH2 0x116 JUMP JUMPDEST STOP JUMPDEST PUSH2 0xE5 PUSH1 0x4 DUP1 CALLDATASIZE SUB DUP2 ADD SWAP1 PUSH2 0xE0 SWAP2 SWAP1 PUSH2 0x1BB JUMP JUMPDEST PUSH2 0x12B JUMP JUMPDEST STOP JUMPDEST DUP1 DUP3 PUSH2 0xF3 SWAP2 SWAP1 PUSH2 0x24E JUMP JUMPDEST PUSH0 DUP2 SWAP1 SSTORE POP POP POP JUMP JUMPDEST PUSH0 SLOAD DUP2 JUMP JUMPDEST DUP1 DUP3 PUSH2 0x10D SWAP2 SWAP1 PUSH2 0x281 JUMP JUMPDEST PUSH0 DUP2 SWAP1 SSTORE POP POP POP JUMP JUMPDEST DUP1 DUP3 PUSH2 0x122 SWAP2 SWAP1 PUSH2 0x2B4 JUMP JUMPDEST PUSH0 DUP2 SWAP1 SSTORE POP POP POP JUMP JUMPDEST DUP1 PUSH0 DUP2 SUB PUSH2 0x16E JUMPI PUSH1 0x40 MLOAD PUSH32 0x8C379A000000000000000000000000000000000000000000000000000000000 DUP2 MSTORE PUSH1 0x4 ADD PUSH2 0x165 SWAP1 PUSH2 0x34F JUMP JUMPDEST PUSH1 0x40 MLOAD DUP1 SWAP2 SUB SWAP1 REVERT JUMPDEST DUP2 DUP4 PUSH2 0x17A SWAP2 SWAP1 PUSH2 0x39A JUMP JUMPDEST PUSH0 DUP2 SWAP1 SSTORE POP POP POP POP JUMP JUMPDEST PUSH0 DUP1 REVERT JUMPDEST PUSH0 DUP2 SWAP1 POP SWAP2 SWAP1 POP JUMP JUMPDEST PUSH2 0x19A DUP2 PUSH2 0x188 JUMP JUMPDEST DUP2 EQ PUSH2 0x1A4 JUMPI PUSH0 DUP1 REVERT JUMPDEST POP JUMP JUMPDEST PUSH0 DUP2 CALLDATALOAD SWAP1 POP PUSH2 0x1B5 DUP2 PUSH2 0x191 JUMP JUMPDEST SWAP3 SWAP2 POP POP JUMP JUMPDEST PUSH0 DUP1 PUSH1 0x40 DUP4 DUP6 SUB SLT ISZERO PUSH2 0x1D1 JUMPI PUSH2 0x1D0 PUSH2 0x184 JUMP JUMPDEST JUMPDEST PUSH0 PUSH2 0x1DE DUP6 DUP3 DUP7 ADD PUSH2 0x1A7 JUMP JUMPDEST SWAP3 POP POP PUSH1 0x20 PUSH2 0x1EF DUP6 DUP3 DUP7 ADD PUSH2 0x1A7 JUMP JUMPDEST SWAP2 POP POP SWAP3 POP SWAP3 SWAP1 POP JUMP JUMPDEST PUSH2 0x202 DUP2 PUSH2 0x188 JUMP JUMPDEST DUP3 MSTORE POP POP JUMP JUMPDEST PUSH0 PUSH1 0x20 DUP3 ADD SWAP1 POP PUSH2 0x21B PUSH0 DUP4 ADD DUP5 PUSH2 0x1F9 JUMP JUMPDEST SWAP3 SWAP2 POP POP JUMP JUMPDEST PUSH32 0x4E487B7100000000000000000000000000000000000000000000000000000000 PUSH0 MSTORE PUSH1 0x11 PUSH1 0x4 MSTORE PUSH1 0x24 PUSH0 REVERT JUMPDEST PUSH0 PUSH2 0x258 DUP3 PUSH2 0x188 JUMP JUMPDEST SWAP2 POP PUSH2 0x263 DUP4 PUSH2 0x188 JUMP JUMPDEST SWAP3 POP DUP3 DUP3 SUB SWAP1 POP DUP2 DUP2 GT ISZERO PUSH2 0x27B JUMPI PUSH2 0x27A PUSH2 0x221 JUMP JUMPDEST JUMPDEST SWAP3 SWAP2 POP POP JUMP JUMPDEST PUSH0 PUSH2 0x28B DUP3 PUSH2 0x188 JUMP JUMPDEST SWAP2 POP PUSH2 0x296 DUP4 PUSH2 0x188 JUMP JUMPDEST SWAP3 POP DUP3 DUP3 ADD SWAP1 POP DUP1 DUP3 GT ISZERO PUSH2 0x2AE JUMPI PUSH2 0x2AD PUSH2 0x221 JUMP JUMPDEST JUMPDEST SWAP3 SWAP2 POP POP JUMP JUMPDEST PUSH0 PUSH2 0x2BE DUP3 PUSH2 0x188 JUMP JUMPDEST SWAP2 POP PUSH2 0x2C9 DUP4 PUSH2 0x188 JUMP JUMPDEST SWAP3 POP DUP3 DUP3 MUL PUSH2 0x2D7 DUP2 PUSH2 0x188 JUMP JUMPDEST SWAP2 POP DUP3 DUP3 DIV DUP5 EQ DUP4 ISZERO OR PUSH2 0x2EE JUMPI PUSH2 0x2ED PUSH2 0x221 JUMP JUMPDEST JUMPDEST POP SWAP3 SWAP2 POP POP JUMP JUMPDEST PUSH0 DUP3 DUP3 MSTORE PUSH1 0x20 DUP3 ADD SWAP1 POP SWAP3 SWAP2 POP POP JUMP JUMPDEST PUSH32 0x4E756D6265722063616E6E6F74206265207A65726F0000000000000000000000 PUSH0 DUP3 ADD MSTORE POP JUMP JUMPDEST PUSH0 PUSH2 0x339 PUSH1 0x15 DUP4 PUSH2 0x2F5 JUMP JUMPDEST SWAP2 POP PUSH2 0x344 DUP3 PUSH2 0x305 JUMP JUMPDEST PUSH1 0x20 DUP3 ADD SWAP1 POP SWAP2 SWAP1 POP JUMP JUMPDEST PUSH0 PUSH1 0x20 DUP3 ADD SWAP1 POP DUP2 DUP2 SUB PUSH0 DUP4 ADD MSTORE PUSH2 0x366 DUP2 PUSH2 0x32D JUMP JUMPDEST SWAP1 POP SWAP2 SWAP1 POP JUMP JUMPDEST PUSH32 0x4E487B7100000000000000000000000000000000000000000000000000000000 PUSH0 MSTORE PUSH1 0x12 PUSH1 0x4 MSTORE PUSH1 0x24 PUSH0 REVERT JUMPDEST PUSH0 PUSH2 0x3A4 DUP3 PUSH2 0x188 JUMP JUMPDEST SWAP2 POP PUSH2 0x3AF DUP4 PUSH2 0x188 JUMP JUMPDEST SWAP3 POP DUP3 PUSH2 0x3BF JUMPI PUSH2 0x3BE PUSH2 0x36D JUMP JUMPDEST JUMPDEST DUP3 DUP3 DIV SWAP1 POP SWAP3 SWAP2 POP POP JUMP INVALID LOG2 PUSH5 0x6970667358 0x22 SLT KECCAK256 SLOAD 0xC6 PUSH31 0x41C27FC4EE305D5F21FF9D4DBB27EB20960F8E740457A6018C34C081226473 PUSH16 0x6C634300081A00330000000000000000 "
				},
				"gasEstimates": {
					"creation": {
						"codeDepositCost": "204800",
						"executionCost": "243",
						"totalCost": "205043"
					},
					"external": {
						"add(uint256,uint256)": "infinite",
						"divide(uint256,uint256)": "infinite",
						"mul(uint256,uint256)": "infinite",
						"result()": "2424",
						"subtract(uint256,uint256)": "infinite"
					}
				},
				"methodIdentifiers": {
					"add(uint256,uint256)": "771602f7",
					"divide(uint256,uint256)": "f88e9fbf",
					"mul(uint256,uint256)": "c8a4ac9c",
					"result()": "65372147",
					"subtract(uint256,uint256)": "3ef5e445"
				}
			},
			"storageLayout": {
				"storage": [
					{
						"astId": 3,
						"contract": "contracts/calculadora.sol:Calculator",
						"label": "result",
						"offset": 0,
						"slot": "0",
						"type": "t_uint256"
					}
				],
				"types": {
					"t_uint256": {
						"encoding": "inplace",
						"label": "uint256",
						"numberOfBytes": "32"
					}
				}
			},
			"userdoc": {
				"kind": "user",
				"methods": {},
				"version": 1
			}
		}
	}
}